:100000000C9458000C9477000C9477000C947700B3
:100010000C9477000C9477000C9477000C94770084
:100020000C9477000C9477000C9477000C94770074
:100030000C9477000C9477000C9477000C94770064
:100040000C9477000C9477000C9477000C94770054
:100050000C9477000C9477000C9477000C94770044
:100060000C9477000C9477000C9477000C94770034
:100070000C9477000C9477000C9477000C94770024
:100080000C9477000C9477000C947700BC00C300AC
:10009000D900EF0005011B01310147015D01880115
:1000A0008D01B601920198019E01A401AA01B0013F
:1000B00011241FBECFEFD0E4DEBFCDBF11E0A0E022
:1000C000B1E0EEECF3E000E00BBF02C007900D9250
:1000D000AE30B107D9F721E0AEE0B1E001C01D922A
:1000E000A031B207E1F70E94BB010C94E5010C942A
:1000F0000000CF93DF9300D01F92CDB7DEB7898386
:100100007B836A8389818A3031F48A819B81BC0137
:100110008DE00E94790080EC90E0FC018081882FC6
:1001200090E080729927892BB1F386EC90E02981C9
:10013000FC01208380E090E00F900F900F90DF9102
:10014000CF910895CF93DF93CDB7DEB780910E01A5
:1001500090910F01CC01A0E0B0E040E050E028E039
:1001600030E0841B950B2817390708F4BCC08A5B64
:100170009F4FFC010C94DC0181E090E090930F0113
:1001800080930E01B0C080E290E0FC018081882F56
:1001900090E0029639F482E090E090930F01809312
:1001A0000E01A1C081E090E090930F0180930E01B9
:1001B0009AC080E290E0FC018081882F90E0029656
:1001C00039F483E090E090930F0180930E018BC08F
:1001D00081E090E090930F0180930E0184C080E253
:1001E00090E0FC018081882F90E0029639F485E050
:1001F00090E090930F0180930E0175C081E090E034
:1002000090930F0180930E016EC080E290E0FC019C
:100210008081882F90E0029639F486E090E09093F8
:100220000F0180930E015FC081E090E090930F0179
:1002300080930E0158C080E290E0FC018081882FFD
:1002400090E0029639F487E090E090930F0180935C
:100250000E0149C081E090E090930F0180930E0160
:1002600042C080E290E0FC018081882F90E00296FD
:1002700039F488E090E090930F0180930E0133C031
:1002800081E090E090930F0180930E012CC080E2FA
:1002900090E0FC018081882F90E0029639F484E0A0
:1002A00090E090930F0180930E011DC081E090E0DB
:1002B00090930F0180930E0116C080E290E0FC0144
:1002C0008081882F90E0029639F483E090E090934B
:1002D0000F0180930E0106C081E090E090930F0122
:1002E00080930E01000080910E0190910F01CC01CE
:1002F000A0E0B0E040E050E028E030E0841B950B47
:1003000028173907A0F1815B9F4FFC010C94DC0199
:1003100085E290E0FC0110822AC085E290E0FC01B9
:10032000108225C085E290E021E0FC0120831FC0FF
:1003300085E290E022E0FC01208319C085E290E094
:1003400024E0FC01208313C085E290E028E0FC015A
:1003500020830DC085E290E020E1FC01208307C0EE
:1003600085E290E020E2FC01208301C00000000053
:10037000DF91CF910895CF93DF93CDB7DEB781E2C0
:1003800090E0FC01108282E290E02FEFFC012083DC
:1003900084E290E02FEFFC01208385E290E0FC01F5
:1003A000108285E290E0FC01108210920F01109201
:1003B0000E010E94A200FDCFEE0FFF1F0024001CC3
:0E03C0000BBE0790F691E02D0994F894FFCF44
:0E03CE000000000200000000790000000000A6
:00000001FF
