:100000000C9446000C9465000C9465000C946500FB
:100010000C9465000C9465000C9465000C946500CC
:100020000C9465000C9465000C9465000C946500BC
:100030000C9465000C94A5010C9465000C9465006B
:100040000C9465000C9465000C9465000C9465009C
:100050000C9465000C9465000C9465000C9465008C
:100060000C9465000C9465000C9465000C9465007C
:100070000C9465000C9465000C9465000C9465006C
:100080000C9465000C9465000C94650011241FBE4F
:10009000CFEFD0E4DEBFCDBF11E0A0E0B1E0ECE8EF
:1000A000F9E000E00BBF02C007900D92AA35B1073E
:1000B000D9F721E0AAE5B1E001C01D92A736B20749
:1000C000E1F70E9402030C94C4040C940000CF9347
:1000D000DF9300D01F92CDB7DEB789837B836A831D
:1000E00089818A3031F48A819B81BC018DE00E9434
:1000F000670080EC90E0FC018081882F90E08072A6
:100100009927892BB1F386EC90E02981FC012083AB
:1001100080E090E00F900F900F90DF91CF910895C5
:100120000F931F93CF93DF9300D000D0CDB7DEB7EE
:1001300069837A838B839C8380915F0190916001B6
:10014000A0916101B09162019C01AD0169817A8148
:100150008B819C810E943003882309F477C020E0C2
:1001600030E0A90169817A818B819C810E943003F2
:10017000882351F481E990E021E930E0F901208100
:100180002870FC01208309C081E990E021E930E07A
:10019000F90120812360FC01208328E539E344E74D
:1001A0005FE369817A818B819C810E94300388237F
:1001B00044F488E990E02FEF3FEFFC013183208386
:1001C00034C020E034E244EF56E469817A818B81C7
:1001D0009C810E945204181634F488E990E0FC01D6
:1001E0001182108222C008E910E020E030E040E0F7
:1001F00053E469817A818B819C810E945704DC01E0
:10020000CB019C01AD0160E074E284EF9AE40E94AE
:100210003503DC01CB01BC01CD010E94A703DC0149
:10022000CB010197F8019183808384E990E0FC0180
:100230001182108289819A81AB81BC8180935F0198
:1002400090936001A0936101B093620100000F9050
:100250000F900F900F90DF91CF911F910F91089504
:10026000CF93DF93CDB7DEB780E990E020E4FC01C7
:10027000208381E990E02BE0FC01208360E070E0C6
:10028000CB010E9490000000DF91CF910895CF93A1
:10029000DF93CDB7DEB780E990E0FC01108281E901
:1002A00090E0FC0110820000DF91CF910895CF9380
:1002B000DF93CDB7DEB781E080935A010000DF9174
:1002C000CF910895CF93DF93CDB7DEB781E890E06B
:1002D000FC0110820000DF91CF910895CF93DF934E
:1002E000CDB7DEB781E890E02BE0FC01208388E801
:1002F00090E02DE730E0FC01318320838FE690E031
:1003000022E0FC01208384E890E0FC01118210824D
:1003100080910E0190910F01A0911001B0911101F7
:1003200080935B0190935C01A0935D01B0935E01AB
:100330008FE590E02FE530E0F90120812068FC0195
:1003400020830000DF91CF9108951F920F920090BB
:100350005F000F92112400905B000F922F933F9348
:100360004F935F936F937F938F939F93AF93BF93BD
:10037000EF93FF93CF93DF93CDB7DEB780915B010F
:1003800090915C01A0915D01B0915E010197A1097E
:10039000B10980935B0190935C01A0935D01B093E0
:1003A0005E0180915B0190915C01A0915D01B09133
:1003B0005E01892B8A2B8B2B91F40E94570180912F
:1003C0000E0190910F01A0911001B0911101809345
:1003D0005B0190935C01A0935D01B0935E0100000E
:1003E000DF91CF91FF91EF91BF91AF919F918F914D
:1003F0007F916F915F914F913F912F910F9000925C
:100400005B000F9000925F000F901F901895CF93A4
:10041000DF9300D000D0CDB7DEB769837A838B83BA
:100420009C8389819A81AB81BC8180930E019093DA
:100430000F01A0931001B093110180910E019091D2
:100440000F01A0911001B091110180935B01909375
:100450005C01A0935D01B0935E0100000F900F90CE
:100460000F900F90DF91CF910895CF93DF931F925C
:10047000CDB7DEB780E290E0FC018081882F90E06C
:100480008170992721E0892B09F020E02983809150
:100490006401909165018230910551F1833091059D
:1004A00028F4009769F0019791F05CC084309105C1
:1004B000C1F18430910570F1059709F442C052C032
:1004C00081E090E0909365018093640150C0898140
:1004D000813039F482E090E090936501809364016B
:1004E00046C081E090E090936501809364013FC035
:1004F00080916301823138F482E090E0909365014D
:100500008093640134C083E090E090936501809310
:1005100064012DC084E090E09093650180936401B4
:1005200026C08981813039F483E090E090936501A1
:100530008093640106C085E090E09093650180930C
:1005400064018981813039F485E090E09093650100
:10055000809364010CC081E090E0909365018093EA
:10056000640105C010926501109264010000809141
:1005700064019091650182309105C9F08330910545
:1005800028F4009761F0019799F137C08430910504
:1005900089F18430910520F1059771F12EC01092F8
:1005A000630160E070E0CB010E94900026C0809162
:1005B0006301882F90E0880F991F880F991F8E5E26
:1005C0009E4FFC0180819181A281B381BC01CD014C
:1005D0000E949000809163018F5F809363010DC042
:1005E00060E070E0CB010E9490001092630105C0B2
:1005F000000003C0000001C0000000000F90DF9168
:10060000CF910895CF93DF93CDB7DEB781E290E02D
:10061000FC01108282E290E02FEFFC01208384E253
:1006200090E020E4FC01208385E290E0FC01108250
:1006300068EC70E080E090E00E9407020E946E018A
:100640000E94300110926501109264010E943502EF
:10065000000080915A018823E1F310925A01F6CFED
:100660000E94DD0308F481E008950E9449030C9480
:1006700018040E94110458F00E940A0440F029F462
:100680005F3F29F00C94010451110C944C040C941C
:1006900007040E94290468F39923B1F3552391F3C9
:1006A000951B550BBB27AA2762177307840738F0E1
:1006B0009F5F5F4F220F331F441FAA1FA9F335D03E
:1006C0000E2E3AF0E0E832D091505040E695001CF2
:1006D000CAF72BD0FE2F29D0660F771F881FBB1FAC
:1006E000261737074807AB07B0E809F0BB0B802D8A
:1006F000BF01FF2793585F4F3AF09E3F510578F0B6
:100700000C9401040C944C045F3FE4F3983ED4F342
:10071000869577956795B795F7959F5FC9F7880F89
:10072000911D9695879597F90895E1E0660F771FDB
:10073000881FBB1F621773078407BA0720F0621B6C
:10074000730B840BBA0BEE1F88F7E09508950E9497
:10075000AE036894B1110C944C0408950E943104C6
:1007600088F09F5798F0B92F9927B751B0F0E1F072
:10077000660F771F881F991F1AF0BA95C9F714C022
:10078000B13091F00E944B04B1E008950C944B04F9
:10079000672F782F8827B85F39F0B93FCCF386955B
:1007A00077956795B395D9F73EF4909580957095B8
:1007B00061957F4F8F4F9F4F0895990F0008550FF8
:1007C000AA0BE0E8FEEF16161706E807F907C0F0D7
:1007D00012161306E407F50798F0621B730B840BDF
:1007E000950B39F40A2661F0232B242B252B21F4B9
:1007F00008950A2609F4A140A6958FEF811D811D59
:10080000089597F99F6780E870E060E008959FEF92
:1008100080EC089500240A94161617061806090697
:10082000089500240A941216130614060506089566
:10083000092E0394000C11F4882352F0BB0F40F4EE
:10084000BF2B11F460FF04C06F5F7F4F8F4F9F4F2E
:10085000089557FD9058440F551F59F05F3F71F0B0
:100860004795880F97FB991F61F09F3F79F0879517
:100870000895121613061406551FF2CF4695F1DFA0
:1008800008C0161617061806991FF1CF8695710530
:10089000610508940895E894BB2766277727CB0164
:1008A00097F908950E94DD0308F48FEF08950E94E0
:1008B0006A040C9418040E940A0438F00E9411047F
:1008C00020F0952311F00C9401040C9407041124DA
:1008D0000C944C040E94290470F3959FC1F3950F6A
:1008E00050E0551F629FF001729FBB27F00DB11DB4
:1008F000639FAA27F00DB11DAA1F649F6627B00D44
:10090000A11D661F829F2227B00DA11D621F739F2C
:10091000B00DA11D621F839FA00D611D221F749F3A
:100920003327A00D611D231F849F600D211D822F81
:10093000762F6A2F11249F5750409AF0F1F08823A8
:100940004AF0EE0FFF1FBB1F661F771F881F9150D5
:100950005040A9F79E3F510580F00C9401040C947F
:100960004C045F3FE4F3983ED4F386957795679502
:10097000B795F795E7959F5FC1F7FE2B880F911DFF
:0C0980009695879597F90895F894FFCF9D
:10098C0000000002000000006700000000000100F1
:10099C0000007BD492437BD492437BD492430000DF
:1009AC00DC430000C4430000C443719DAE437BD4C0
:1009BC009243719DAE430000C443A4D08243A4D0A3
:1009CC0082437BD492430000DC430000C44300000C
:0A09DC00C443719DAE437BD49243E7
:00000001FF
